{"abi":[{"type":"function","name":"createToken","inputs":[{"name":"_name","type":"string","internalType":"string"},{"name":"_symbol","type":"string","internalType":"string"}],"outputs":[{"name":"token","type":"address","internalType":"address"}],"stateMutability":"payable"},{"type":"function","name":"getTokenCount","inputs":[],"outputs":[{"name":"","type":"uint256","internalType":"uint256"}],"stateMutability":"view"},{"type":"function","name":"getTokens","inputs":[],"outputs":[{"name":"","type":"address[]","internalType":"address[]"}],"stateMutability":"view"},{"type":"function","name":"tokenCreator","inputs":[{"name":"","type":"address","internalType":"address"}],"outputs":[{"name":"","type":"address","internalType":"address"}],"stateMutability":"view"},{"type":"function","name":"tokens","inputs":[{"name":"","type":"uint256","internalType":"uint256"}],"outputs":[{"name":"","type":"address","internalType":"address"}],"stateMutability":"view"},{"type":"event","name":"TokenCreated","inputs":[{"name":"token","type":"address","indexed":true,"internalType":"address"},{"name":"creator","type":"address","indexed":true,"internalType":"address"},{"name":"name","type":"string","indexed":false,"internalType":"string"},{"name":"symbol","type":"string","indexed":false,"internalType":"string"}],"anonymous":false}],"bytecode":{"object":"0x608060405234801561000f575f80fd5b506122e28061001d5f395ff3fe608060405260043610610049575f3560e01c806323774af21461004d5780632f2f2d561461009e5780634f64b2be146100b157806378a89567146100d0578063aa6ca808146100ec575b5f80fd5b348015610058575f80fd5b50610081610067366004610375565b60016020525f90815260409020546001600160a01b031681565b6040516001600160a01b0390911681526020015b60405180910390f35b6100816100ac3660046103e7565b61010d565b3480156100bc575f80fd5b506100816100cb36600461044e565b6102e1565b3480156100db575f80fd5b505f54604051908152602001610095565b3480156100f7575f80fd5b50610100610308565b6040516100959190610465565b5f836101505760405162461bcd60e51b815260206004820152600d60248201526c13985b59481c995c5d5a5c9959609a1b60448201526064015b60405180910390fd5b8161018f5760405162461bcd60e51b815260206004820152600f60248201526e14de5b589bdb081c995c5d5a5c9959608a1b6044820152606401610147565b5f33868686866040516101a190610367565b6101af9594939291906104d9565b604051809103905ff0801580156101c8573d5f803e3d5ffd5b505f8054600181810183557f290decd9548b62a8d60345a988386fc84ba6bc95484008f6362f93160ef3e56390910180546001600160a01b0385166001600160a01b0319918216811790925590835260209190915260409091208054909116331790559150819050341561028757806001600160a01b031663a6f2ae3a346040518263ffffffff1660e01b81526004015f604051808303818588803b15801561026f575f80fd5b505af1158015610281573d5f803e3d5ffd5b50505050505b336001600160a01b0316826001600160a01b03167fd5d05a8421149c74fd223cfc823befb883babf9bf0b0e4d6bf9c8fdb70e59bb4888888886040516102d0949392919061051c565b60405180910390a350949350505050565b5f81815481106102ef575f80fd5b5f918252602090912001546001600160a01b0316905081565b60605f80548060200260200160405190810160405280929190818152602001828054801561035d57602002820191905f5260205f20905b81546001600160a01b0316815260019091019060200180831161033f575b5050505050905090565b611d5f806200054e83390190565b5f60208284031215610385575f80fd5b81356001600160a01b038116811461039b575f80fd5b9392505050565b5f8083601f8401126103b2575f80fd5b50813567ffffffffffffffff8111156103c9575f80fd5b6020830191508360208285010111156103e0575f80fd5b9250929050565b5f805f80604085870312156103fa575f80fd5b843567ffffffffffffffff80821115610411575f80fd5b61041d888389016103a2565b90965094506020870135915080821115610435575f80fd5b50610442878288016103a2565b95989497509550505050565b5f6020828403121561045e575f80fd5b5035919050565b602080825282518282018190525f9190848201906040850190845b818110156104a55783516001600160a01b031683529284019291840191600101610480565b50909695505050505050565b81835281816020850137505f828201602090810191909152601f909101601f19169091010190565b6001600160a01b03861681526060602082018190525f906104fd90830186886104b1565b82810360408401526105108185876104b1565b98975050505050505050565b604081525f61052f6040830186886104b1565b82810360208401526105428185876104b1565b97965050505050505056fe60a060405234801562000010575f80fd5b5060405162001d5f38038062001d5f8339810160408190526200003391620001af565b81816003620000438382620002bf565b506004620000528282620002bf565b50505060016200006e6200006b620000cd60201b60201c565b90565b556001600160a01b038316620000b95760405162461bcd60e51b815260206004820152600c60248201526b2d32b9379031b932b0ba37b960a11b604482015260640160405180910390fd5b50506001600160a01b031660805262000387565b7f9b779b17422d0df92223018b32b4d1fa46e071723d6817e2486d003becc55f0090565b634e487b7160e01b5f52604160045260245ffd5b5f82601f83011262000115575f80fd5b81516001600160401b0380821115620001325762000132620000f1565b604051601f8301601f19908116603f011681019082821181831017156200015d576200015d620000f1565b8160405283815260209250868385880101111562000179575f80fd5b5f91505b838210156200019c57858201830151818301840152908201906200017d565b5f93810190920192909252949350505050565b5f805f60608486031215620001c2575f80fd5b83516001600160a01b0381168114620001d9575f80fd5b60208501519093506001600160401b0380821115620001f6575f80fd5b620002048783880162000105565b935060408601519150808211156200021a575f80fd5b50620002298682870162000105565b9150509250925092565b600181811c908216806200024857607f821691505b6020821081036200026757634e487b7160e01b5f52602260045260245ffd5b50919050565b601f821115620002ba575f81815260208120601f850160051c81016020861015620002955750805b601f850160051c820191505b81811015620002b657828155600101620002a1565b5050505b505050565b81516001600160401b03811115620002db57620002db620000f1565b620002f381620002ec845462000233565b846200026d565b602080601f83116001811462000329575f8415620003115750858301515b5f19600386901b1c1916600185901b178555620002b6565b5f85815260208120601f198616915b82811015620003595788860151825594840194600190910190840162000338565b50858210156200037757878501515f19600388901b60f8161c191681555b5050505050600190811b01905550565b6080516119b1620003ae5f395f8181610211015281816108420152610ff601526119b15ff3fe6080604052600436106101b2575f3560e01c8063a5a9ba8d116100e7578063dc8b0c5911610087578063e7c2b77211610062578063e7c2b7721461052b578063eb91d37e14610544578063f86325ed14610558578063fcfc0c0914610570575f80fd5b8063dc8b0c5914610482578063dd62ed3e146104c8578063e4849b321461050c575f80fd5b8063a9059cbb116100c2578063a9059cbb14610417578063bdd3d82514610436578063bf333f2c1461045a578063d3618cca1461046e575f80fd5b8063a5a9ba8d146103c9578063a6f2ae3a146103e8578063a82ed9ec146103f0575f80fd5b8063313ce567116101525780637e5048211161012d5780637e504821146103765780638b7cc6291461038b57806390825c28146103a157806395d89b41146103b5575f80fd5b8063313ce56714610315578063634ab21d1461033057806370a0823114610342575f80fd5b806308d4db141161018d57806308d4db1414610286578063095ea7b3146102b357806318160ddd146102e257806323b872dd146102f6575f80fd5b806302d05d3f1461020057806303fd2a451461025057806306fdde0314610265575f80fd5b366101fc5760065460ff166101fa5760405162461bcd60e51b815260206004820152600960248201526855736520627579282960b81b60448201526064015b60405180910390fd5b005b5f80fd5b34801561020b575f80fd5b506102337f000000000000000000000000000000000000000000000000000000000000000081565b6040516001600160a01b0390911681526020015b60405180910390f35b34801561025b575f80fd5b5061023361dead81565b348015610270575f80fd5b5061027961058b565b6040516102479190611743565b348015610291575f80fd5b506102a56102a036600461178e565b61061b565b604051908152602001610247565b3480156102be575f80fd5b506102d26102cd3660046117b9565b610634565b6040519015158152602001610247565b3480156102ed575f80fd5b506002546102a5565b348015610301575f80fd5b506102d26103103660046117e3565b61064b565b348015610320575f80fd5b5060405160128152602001610247565b34801561033b575f80fd5b50476102a5565b34801561034d575f80fd5b506102a561035c366004611821565b6001600160a01b03165f9081526020819052604090205490565b348015610381575f80fd5b506102a560055481565b348015610396575f80fd5b506102a5620f424081565b3480156103ac575f80fd5b506102a561066e565b3480156103c0575f80fd5b506102796106ab565b3480156103d4575f80fd5b506102a56103e336600461178e565b6106ba565b6101fa61070e565b3480156103fb575f80fd5b50610233734752ba5dbc23f44d87826276bf6fd6b1c372ad2481565b348015610422575f80fd5b506102d26104313660046117b9565b610964565b348015610441575f80fd5b506006546102339061010090046001600160a01b031681565b348015610465575f80fd5b506102a5606481565b348015610479575f80fd5b506101fa610971565b34801561048d575f80fd5b50610496610dc2565b6040805195151586526001600160a01b039094166020860152928401919091526060830152608082015260a001610247565b3480156104d3575f80fd5b506102a56104e236600461183c565b6001600160a01b039182165f90815260016020908152604080832093909416825291909152205490565b348015610517575f80fd5b506101fa61052636600461178e565b610e1e565b348015610536575f80fd5b506006546102d29060ff1681565b34801561054f575f80fd5b506102a56111a4565b348015610563575f80fd5b506102a564e8d4a5100081565b34801561057b575f80fd5b506102a5678ac7230489e8000081565b60606003805461059a90611873565b80601f01602080910402602001604051908101604052809291908181526020018280546105c690611873565b80156106115780601f106105e857610100808354040283529160200191610611565b820191905f5260205f20905b8154815290600101906020018083116105f457829003601f168201915b5050505050905090565b5f61062e8261062960025490565b6111b1565b92915050565b5f3361064181858561126a565b5060019392505050565b5f3361065885828561127c565b6106638585856112f8565b506001949350505050565b5f670de0b6b3a764000061068160025490565b61069261068d60025490565b611355565b61069c91906118b9565b6106a691906118d0565b905090565b60606004805461059a90611873565b5f806106c560025490565b9050808311156106d757505f92915050565b5f6106e28483611385565b90506127106106f26064836118b9565b6106fc91906118d0565b61070690826118ef565b949350505050565b6107166113d6565b60065460ff16156107695760405162461bcd60e51b815260206004820152601b60248201527f4772616475617465643a207472616465206f6e20556e6973776170000000000060448201526064016101f1565b5f34116107aa5760405162461bcd60e51b815260206004820152600f60248201526e53656e642045544820746f2062757960881b60448201526064016101f1565b5f6127106107b96064346118b9565b6107c391906118d0565b90505f6107d082346118ef565b90505f6107e08261062960025490565b90505f811161081e5760405162461bcd60e51b815260206004820152600a6024820152694475737420747261646560b01b60448201526064016101f1565b8260055f82825461082f9190611902565b9091555061083f905033826113f1565b5f7f00000000000000000000000000000000000000000000000000000000000000006001600160a01b0316846040515f6040518083038185875af1925050503d805f81146108a8576040519150601f19603f3d011682016040523d82523d5f602084013e6108ad565b606091505b50509050806108f45760405162461bcd60e51b8152602060048201526013602482015272119959481d1c985b9cd9995c8819985a5b1959606a1b60448201526064016101f1565b337f69fd83406168ef35927190021ab940690b846cc0c13e3c76f0a74a83bdaddf9e6001848661092360025490565b604080519415158552602085019390935291830152606082015260800160405180910390a25050505061096260015f8051602061195c83398151915255565b565b5f336106418185856112f8565b6109796113d6565b60065460ff16156109c05760405162461bcd60e51b8152602060048201526011602482015270105b1c9958591e4819dc98591d585d1959607a1b60448201526064016101f1565b47678ac7230489e80000811015610a195760405162461bcd60e51b815260206004820152601a60248201527f42656c6f772067726164756174696f6e207468726573686f6c6400000000000060448201526064016101f1565b6006805460ff191660011790555f610a3060025490565b90505f670de0b6b3a7640000610a4983620f42406118b9565b610a5391906118d0565b610a629064e8d4a51000611902565b90505f81610a78670de0b6b3a7640000866118b9565b610a8291906118d0565b90505f8111610ac45760405162461bcd60e51b815260206004820152600e60248201526d5a65726f204c5020746f6b656e7360901b60448201526064016101f1565b610ace30826113f1565b610aed30734752ba5dbc23f44d87826276bf6fd6b1c372ad248361126a565b734752ba5dbc23f44d87826276bf6fd6b1c372ad2463f305d7198530846064610b1782605a6118b9565b610b2191906118d0565b6064610b2e8b605a6118b9565b610b3891906118d0565b61dead610b474261012c611902565b60405160e089901b6001600160e01b03191681526001600160a01b039687166004820152602481019590955260448501939093526064840191909152909216608482015260a481019190915260c40160606040518083038185885af1158015610bb2573d5f803e3d5ffd5b50505050506040513d601f19601f82011682018060405250810190610bd79190611915565b5050505f734752ba5dbc23f44d87826276bf6fd6b1c372ad246001600160a01b031663c45a01556040518163ffffffff1660e01b8152600401602060405180830381865afa158015610c2b573d5f803e3d5ffd5b505050506040513d601f19601f82011682018060405250810190610c4f9190611940565b90505f734752ba5dbc23f44d87826276bf6fd6b1c372ad246001600160a01b031663ad5c46486040518163ffffffff1660e01b8152600401602060405180830381865afa158015610ca2573d5f803e3d5ffd5b505050506040513d601f19601f82011682018060405250810190610cc69190611940565b60405163e6a4390560e01b81523060048201526001600160a01b0380831660248301529192509083169063e6a4390590604401602060405180830381865afa158015610d14573d5f803e3d5ffd5b505050506040513d601f19601f82011682018060405250810190610d389190611940565b60068054610100600160a81b0319166101006001600160a01b0393841681029190911791829055604080518a8152602081018890529081018990529104909116907fcb64f2436060c9575db20c5dcf9cdc11657017ee5b0301949f531b3dd7da6b199060600160405180910390a250505050505061096260015f8051602061195c83398151915255565b60065460ff81169061010090046001600160a01b031647678ac7230489e800005f8282811015610e1057678ac7230489e80000610e01826127106118b9565b610e0b91906118d0565b610e14565b6127105b9150509091929394565b610e266113d6565b60065460ff1615610e795760405162461bcd60e51b815260206004820152601b60248201527f4772616475617465643a207472616465206f6e20556e6973776170000000000060448201526064016101f1565b5f8111610eb95760405162461bcd60e51b815260206004820152600e60248201526d416d6f756e74206973207a65726f60901b60448201526064016101f1565b335f90815260208190526040902054811115610f0e5760405162461bcd60e51b8152602060048201526014602482015273496e73756666696369656e742062616c616e636560601b60448201526064016101f1565b600254811115610f515760405162461bcd60e51b815260206004820152600e60248201526d4578636565647320737570706c7960901b60448201526064016101f1565b5f610f6482610f5f60025490565b611385565b90505f8111610faa5760405162461bcd60e51b81526020600482015260126024820152714e6f7468696e6720746f207265636569766560701b60448201526064016101f1565b5f612710610fb96064846118b9565b610fc391906118d0565b90505f610fd082846118ef565b90508160055f828254610fe39190611902565b90915550610ff390503385611429565b5f7f00000000000000000000000000000000000000000000000000000000000000006001600160a01b0316836040515f6040518083038185875af1925050503d805f811461105c576040519150601f19603f3d011682016040523d82523d5f602084013e611061565b606091505b50509050806110a85760405162461bcd60e51b8152602060048201526013602482015272119959481d1c985b9cd9995c8819985a5b1959606a1b60448201526064016101f1565b6040515f90339084908381818185875af1925050503d805f81146110e7576040519150601f19603f3d011682016040523d82523d5f602084013e6110ec565b606091505b50509050806111335760405162461bcd60e51b8152602060048201526013602482015272115512081d1c985b9cd9995c8819985a5b1959606a1b60448201526064016101f1565b337f69fd83406168ef35927190021ab940690b846cc0c13e3c76f0a74a83bdaddf9e5f888661116160025490565b604080519415158552602085019390935291830152606082015260800160405180910390a250505050506111a160015f8051602061195c83398151915255565b50565b5f6106a661068d60025490565b5f80670de0b6b3a76400006111c984620f42406118b9565b6111d391906118d0565b6111e29064e8d4a51000611902565b90505f846111f4620f424060026118b9565b6111fe91906118b9565b61120883806118b9565b6112129190611902565b90505f61121e8261145d565b9050828111611232575f935050505061062e565b5f620f424061124185846118ef565b61124b91906118d0565b905061125f670de0b6b3a7640000826118b9565b979650505050505050565b61127783838360016114c2565b505050565b6001600160a01b038381165f908152600160209081526040808320938616835292905220545f198110156112f257818110156112e457604051637dc7a0d960e11b81526001600160a01b038416600482015260248101829052604481018390526064016101f1565b6112f284848484035f6114c2565b50505050565b6001600160a01b03831661132157604051634b637e8f60e11b81525f60048201526024016101f1565b6001600160a01b03821661134a5760405163ec442f0560e01b81525f60048201526024016101f1565b611277838383611594565b5f670de0b6b3a764000061136c83620f42406118b9565b61137691906118d0565b61062e9064e8d4a51000611902565b5f8183111561139557505f61062e565b5f61139f836116ba565b90505f6113b46113af86866118ef565b6116ba565b90508082116113c3575f6113cd565b6113cd81836118ef565b95945050505050565b6113de611714565b60025f8051602061195c83398151915255565b6001600160a01b03821661141a5760405163ec442f0560e01b81525f60048201526024016101f1565b6114255f8383611594565b5050565b6001600160a01b03821661145257604051634b637e8f60e11b81525f60048201526024016101f1565b611425825f83611594565b5f815f0361146c57505f919050565b50805f600261147c836001611902565b61148691906118d0565b90505b818110156114bc579050806002816114a181866118d0565b6114ab9190611902565b6114b591906118d0565b9050611489565b50919050565b6001600160a01b0384166114eb5760405163e602df0560e01b81525f60048201526024016101f1565b6001600160a01b03831661151457604051634a1406b160e11b81525f60048201526024016101f1565b6001600160a01b038085165f90815260016020908152604080832093871683529290522082905580156112f257826001600160a01b0316846001600160a01b03167f8c5be1e5ebec7d5bd14f71427d1e84f3dd0314c0f7b2291e5b200ac8c7c3b9258460405161158691815260200190565b60405180910390a350505050565b6001600160a01b0383166115be578060025f8282546115b39190611902565b9091555061162e9050565b6001600160a01b0383165f90815260208190526040902054818110156116105760405163391434e360e21b81526001600160a01b038516600482015260248101829052604481018390526064016101f1565b6001600160a01b0384165f9081526020819052604090209082900390555b6001600160a01b03821661164a57600280548290039055611668565b6001600160a01b0382165f9081526020819052604090208054820190555b816001600160a01b0316836001600160a01b03167fddf252ad1be2c89b69c2b068fc378daa952ba7f163c4a11628f55a4df523b3ef836040516116ad91815260200190565b60405180910390a3505050565b5f806116ce670de0b6b3a7640000846118d0565b90506002816116e081620f42406118b9565b6116ea91906118b9565b6116f491906118d0565b6117038264e8d4a510006118b9565b61170d9190611902565b9392505050565b5f8051602061195c8339815191525460020361096257604051633ee5aeb560e01b815260040160405180910390fd5b5f6020808352835180828501525f5b8181101561176e57858101830151858201604001528201611752565b505f604082860101526040601f19601f8301168501019250505092915050565b5f6020828403121561179e575f80fd5b5035919050565b6001600160a01b03811681146111a1575f80fd5b5f80604083850312156117ca575f80fd5b82356117d5816117a5565b946020939093013593505050565b5f805f606084860312156117f5575f80fd5b8335611800816117a5565b92506020840135611810816117a5565b929592945050506040919091013590565b5f60208284031215611831575f80fd5b813561170d816117a5565b5f806040838503121561184d575f80fd5b8235611858816117a5565b91506020830135611868816117a5565b809150509250929050565b600181811c9082168061188757607f821691505b6020821081036114bc57634e487b7160e01b5f52602260045260245ffd5b634e487b7160e01b5f52601160045260245ffd5b808202811582820484141761062e5761062e6118a5565b5f826118ea57634e487b7160e01b5f52601260045260245ffd5b500490565b8181038181111561062e5761062e6118a5565b8082018082111561062e5761062e6118a5565b5f805f60608486031215611927575f80fd5b8351925060208401519150604084015190509250925092565b5f60208284031215611950575f80fd5b815161170d816117a556fe9b779b17422d0df92223018b32b4d1fa46e071723d6817e2486d003becc55f00a2646970667358221220784b63562d73fb43e7d3ff4243f6e4593c600e76c7d5c84ad68275d63402079664736f6c63430008140033a26469706673582212201229804b9037fc7061e09108d7157861ff0ffe2c1067b3910f5812df1b3ffa6464736f6c63430008140033","linkReferences":{}},"methodIdentifiers":{"createToken(string,string)":"2f2f2d56","getTokenCount()":"78a89567","getTokens()":"aa6ca808","tokenCreator(address)":"23774af2","tokens(uint256)":"4f64b2be"},"id":29}