{"abi":[{"type":"function","name":"createToken","inputs":[{"name":"_name","type":"string","internalType":"string"},{"name":"_symbol","type":"string","internalType":"string"}],"outputs":[{"name":"token","type":"address","internalType":"address"}],"stateMutability":"payable"},{"type":"function","name":"getTokenCount","inputs":[],"outputs":[{"name":"","type":"uint256","internalType":"uint256"}],"stateMutability":"view"},{"type":"function","name":"getTokens","inputs":[],"outputs":[{"name":"","type":"address[]","internalType":"address[]"}],"stateMutability":"view"},{"type":"function","name":"tokenCreator","inputs":[{"name":"","type":"address","internalType":"address"}],"outputs":[{"name":"","type":"address","internalType":"address"}],"stateMutability":"view"},{"type":"function","name":"tokens","inputs":[{"name":"","type":"uint256","internalType":"uint256"}],"outputs":[{"name":"","type":"address","internalType":"address"}],"stateMutability":"view"},{"type":"event","name":"TokenCreated","inputs":[{"name":"token","type":"address","indexed":true,"internalType":"address"},{"name":"creator","type":"address","indexed":true,"internalType":"address"},{"name":"name","type":"string","indexed":false,"internalType":"string"},{"name":"symbol","type":"string","indexed":false,"internalType":"string"}],"anonymous":false}],"bytecode":{"object":"0x608060405234801561000f575f80fd5b50611ba38061001d5f395ff3fe608060405260043610610049575f3560e01c806323774af21461004d5780632f2f2d561461009e5780634f64b2be146100b157806378a89567146100d0578063aa6ca808146100ec575b5f80fd5b348015610058575f80fd5b50610081610067366004610375565b60016020525f90815260409020546001600160a01b031681565b6040516001600160a01b0390911681526020015b60405180910390f35b6100816100ac3660046103e7565b61010d565b3480156100bc575f80fd5b506100816100cb36600461044e565b6102e1565b3480156100db575f80fd5b505f54604051908152602001610095565b3480156100f7575f80fd5b50610100610308565b6040516100959190610465565b5f836101505760405162461bcd60e51b815260206004820152600d60248201526c13985b59481c995c5d5a5c9959609a1b60448201526064015b60405180910390fd5b8161018f5760405162461bcd60e51b815260206004820152600f60248201526e14de5b589bdb081c995c5d5a5c9959608a1b6044820152606401610147565b5f33868686866040516101a190610367565b6101af9594939291906104d9565b604051809103905ff0801580156101c8573d5f803e3d5ffd5b505f8054600181810183557f290decd9548b62a8d60345a988386fc84ba6bc95484008f6362f93160ef3e56390910180546001600160a01b0385166001600160a01b0319918216811790925590835260209190915260409091208054909116331790559150819050341561028757806001600160a01b031663a6f2ae3a346040518263ffffffff1660e01b81526004015f604051808303818588803b15801561026f575f80fd5b505af1158015610281573d5f803e3d5ffd5b50505050505b336001600160a01b0316826001600160a01b03167fd5d05a8421149c74fd223cfc823befb883babf9bf0b0e4d6bf9c8fdb70e59bb4888888886040516102d0949392919061051c565b60405180910390a350949350505050565b5f81815481106102ef575f80fd5b5f918252602090912001546001600160a01b0316905081565b60605f80548060200260200160405190810160405280929190818152602001828054801561035d57602002820191905f5260205f20905b81546001600160a01b0316815260019091019060200180831161033f575b5050505050905090565b611620806200054e83390190565b5f60208284031215610385575f80fd5b81356001600160a01b038116811461039b575f80fd5b9392505050565b5f8083601f8401126103b2575f80fd5b50813567ffffffffffffffff8111156103c9575f80fd5b6020830191508360208285010111156103e0575f80fd5b9250929050565b5f805f80604085870312156103fa575f80fd5b843567ffffffffffffffff80821115610411575f80fd5b61041d888389016103a2565b90965094506020870135915080821115610435575f80fd5b50610442878288016103a2565b95989497509550505050565b5f6020828403121561045e575f80fd5b5035919050565b602080825282518282018190525f9190848201906040850190845b818110156104a55783516001600160a01b031683529284019291840191600101610480565b50909695505050505050565b81835281816020850137505f828201602090810191909152601f909101601f19169091010190565b6001600160a01b03861681526060602082018190525f906104fd90830186886104b1565b82810360408401526105108185876104b1565b98975050505050505050565b604081525f61052f6040830186886104b1565b82810360208401526105428185876104b1565b97965050505050505056fe60a060405234801562000010575f80fd5b5060405162001620380380620016208339810160408190526200003391620001af565b81816003620000438382620002bf565b506004620000528282620002bf565b50505060016200006e6200006b620000cd60201b60201c565b90565b556001600160a01b038316620000b95760405162461bcd60e51b815260206004820152600c60248201526b2d32b9379031b932b0ba37b960a11b604482015260640160405180910390fd5b50506001600160a01b031660805262000387565b7f9b779b17422d0df92223018b32b4d1fa46e071723d6817e2486d003becc55f0090565b634e487b7160e01b5f52604160045260245ffd5b5f82601f83011262000115575f80fd5b81516001600160401b0380821115620001325762000132620000f1565b604051601f8301601f19908116603f011681019082821181831017156200015d576200015d620000f1565b8160405283815260209250868385880101111562000179575f80fd5b5f91505b838210156200019c57858201830151818301840152908201906200017d565b5f93810190920192909252949350505050565b5f805f60608486031215620001c2575f80fd5b83516001600160a01b0381168114620001d9575f80fd5b60208501519093506001600160401b0380821115620001f6575f80fd5b620002048783880162000105565b935060408601519150808211156200021a575f80fd5b50620002298682870162000105565b9150509250925092565b600181811c908216806200024857607f821691505b6020821081036200026757634e487b7160e01b5f52602260045260245ffd5b50919050565b601f821115620002ba575f81815260208120601f850160051c81016020861015620002955750805b601f850160051c820191505b81811015620002b657828155600101620002a1565b5050505b505050565b81516001600160401b03811115620002db57620002db620000f1565b620002f381620002ec845462000233565b846200026d565b602080601f83116001811462000329575f8415620003115750858301515b5f19600386901b1c1916600185901b178555620002b6565b5f85815260208120601f198616915b82811015620003595788860151825594840194600190910190840162000338565b50858210156200037757878501515f19600388901b60f8161c191681555b5050505050600190811b01905550565b608051611272620003ae5f395f818161017101528181610651015261090501526112725ff3fe60806040526004361061011e575f3560e01c806390825c281161009d578063bf333f2c11610062578063bf333f2c1461034a578063dd62ed3e1461035e578063e4849b32146103a2578063eb91d37e146103c1578063f86325ed146103d5575f80fd5b806390825c28146102da57806395d89b41146102ee578063a5a9ba8d14610302578063a6f2ae3a14610321578063a9059cbb1461032b575f80fd5b806323b872dd116100e357806323b872dd14610241578063313ce5671461026057806370a082311461027b5780637e504821146102af5780638b7cc629146102c4575f80fd5b806302d05d3f1461016057806306fdde03146101b057806308d4db14146101d1578063095ea7b3146101fe57806318160ddd1461022d575f80fd5b3661015c5760405162461bcd60e51b815260206004820152600960248201526855736520627579282960b81b60448201526064015b60405180910390fd5b5f80fd5b34801561016b575f80fd5b506101937f000000000000000000000000000000000000000000000000000000000000000081565b6040516001600160a01b0390911681526020015b60405180910390f35b3480156101bb575f80fd5b506101c46103ed565b6040516101a79190611052565b3480156101dc575f80fd5b506101f06101eb36600461109d565b61047d565b6040519081526020016101a7565b348015610209575f80fd5b5061021d6102183660046110cf565b610496565b60405190151581526020016101a7565b348015610238575f80fd5b506002546101f0565b34801561024c575f80fd5b5061021d61025b3660046110f7565b6104ad565b34801561026b575f80fd5b50604051601281526020016101a7565b348015610286575f80fd5b506101f0610295366004611130565b6001600160a01b03165f9081526020819052604090205490565b3480156102ba575f80fd5b506101f060055481565b3480156102cf575f80fd5b506101f0620f424081565b3480156102e5575f80fd5b506101f06104d0565b3480156102f9575f80fd5b506101c461050d565b34801561030d575f80fd5b506101f061031c36600461109d565b61051c565b610329610570565b005b348015610336575f80fd5b5061021d6103453660046110cf565b610773565b348015610355575f80fd5b506101f0606481565b348015610369575f80fd5b506101f0610378366004611149565b6001600160a01b039182165f90815260016020908152604080832093909416825291909152205490565b3480156103ad575f80fd5b506103296103bc36600461109d565b610780565b3480156103cc575f80fd5b506101f0610ab3565b3480156103e0575f80fd5b506101f064e8d4a5100081565b6060600380546103fc9061117a565b80601f01602080910402602001604051908101604052809291908181526020018280546104289061117a565b80156104735780601f1061044a57610100808354040283529160200191610473565b820191905f5260205f20905b81548152906001019060200180831161045657829003601f168201915b5050505050905090565b5f6104908261048b60025490565b610ac0565b92915050565b5f336104a3818585610b79565b5060019392505050565b5f336104ba858285610b8b565b6104c5858585610c07565b506001949350505050565b5f670de0b6b3a76400006104e360025490565b6104f46104ef60025490565b610c64565b6104fe91906111c0565b61050891906111d7565b905090565b6060600480546103fc9061117a565b5f8061052760025490565b90508083111561053957505f92915050565b5f6105448483610c94565b90506127106105546064836111c0565b61055e91906111d7565b61056890826111f6565b949350505050565b610578610ce5565b5f34116105b95760405162461bcd60e51b815260206004820152600f60248201526e53656e642045544820746f2062757960881b6044820152606401610153565b5f6127106105c86064346111c0565b6105d291906111d7565b90505f6105df82346111f6565b90505f6105ef8261048b60025490565b90505f811161062d5760405162461bcd60e51b815260206004820152600a6024820152694475737420747261646560b01b6044820152606401610153565b8260055f82825461063e9190611209565b9091555061064e90503382610d00565b5f7f00000000000000000000000000000000000000000000000000000000000000006001600160a01b0316846040515f6040518083038185875af1925050503d805f81146106b7576040519150601f19603f3d011682016040523d82523d5f602084013e6106bc565b606091505b50509050806107035760405162461bcd60e51b8152602060048201526013602482015272119959481d1c985b9cd9995c8819985a5b1959606a1b6044820152606401610153565b337f69fd83406168ef35927190021ab940690b846cc0c13e3c76f0a74a83bdaddf9e6001848661073260025490565b604080519415158552602085019390935291830152606082015260800160405180910390a25050505061077160015f8051602061121d83398151915255565b565b5f336104a3818585610c07565b610788610ce5565b5f81116107c85760405162461bcd60e51b815260206004820152600e60248201526d416d6f756e74206973207a65726f60901b6044820152606401610153565b335f9081526020819052604090205481111561081d5760405162461bcd60e51b8152602060048201526014602482015273496e73756666696369656e742062616c616e636560601b6044820152606401610153565b6002548111156108605760405162461bcd60e51b815260206004820152600e60248201526d4578636565647320737570706c7960901b6044820152606401610153565b5f6108738261086e60025490565b610c94565b90505f81116108b95760405162461bcd60e51b81526020600482015260126024820152714e6f7468696e6720746f207265636569766560701b6044820152606401610153565b5f6127106108c86064846111c0565b6108d291906111d7565b90505f6108df82846111f6565b90508160055f8282546108f29190611209565b9091555061090290503385610d38565b5f7f00000000000000000000000000000000000000000000000000000000000000006001600160a01b0316836040515f6040518083038185875af1925050503d805f811461096b576040519150601f19603f3d011682016040523d82523d5f602084013e610970565b606091505b50509050806109b75760405162461bcd60e51b8152602060048201526013602482015272119959481d1c985b9cd9995c8819985a5b1959606a1b6044820152606401610153565b6040515f90339084908381818185875af1925050503d805f81146109f6576040519150601f19603f3d011682016040523d82523d5f602084013e6109fb565b606091505b5050905080610a425760405162461bcd60e51b8152602060048201526013602482015272115512081d1c985b9cd9995c8819985a5b1959606a1b6044820152606401610153565b337f69fd83406168ef35927190021ab940690b846cc0c13e3c76f0a74a83bdaddf9e5f8886610a7060025490565b604080519415158552602085019390935291830152606082015260800160405180910390a25050505050610ab060015f8051602061121d83398151915255565b50565b5f6105086104ef60025490565b5f80670de0b6b3a7640000610ad884620f42406111c0565b610ae291906111d7565b610af19064e8d4a51000611209565b90505f84610b03620f424060026111c0565b610b0d91906111c0565b610b1783806111c0565b610b219190611209565b90505f610b2d82610d6c565b9050828111610b41575f9350505050610490565b5f620f4240610b5085846111f6565b610b5a91906111d7565b9050610b6e670de0b6b3a7640000826111c0565b979650505050505050565b610b868383836001610dd1565b505050565b6001600160a01b038381165f908152600160209081526040808320938616835292905220545f19811015610c015781811015610bf357604051637dc7a0d960e11b81526001600160a01b03841660048201526024810182905260448101839052606401610153565b610c0184848484035f610dd1565b50505050565b6001600160a01b038316610c3057604051634b637e8f60e11b81525f6004820152602401610153565b6001600160a01b038216610c595760405163ec442f0560e01b81525f6004820152602401610153565b610b86838383610ea3565b5f670de0b6b3a7640000610c7b83620f42406111c0565b610c8591906111d7565b6104909064e8d4a51000611209565b5f81831115610ca457505f610490565b5f610cae83610fc9565b90505f610cc3610cbe86866111f6565b610fc9565b9050808211610cd2575f610cdc565b610cdc81836111f6565b95945050505050565b610ced611023565b60025f8051602061121d83398151915255565b6001600160a01b038216610d295760405163ec442f0560e01b81525f6004820152602401610153565b610d345f8383610ea3565b5050565b6001600160a01b038216610d6157604051634b637e8f60e11b81525f6004820152602401610153565b610d34825f83610ea3565b5f815f03610d7b57505f919050565b50805f6002610d8b836001611209565b610d9591906111d7565b90505b81811015610dcb57905080600281610db081866111d7565b610dba9190611209565b610dc491906111d7565b9050610d98565b50919050565b6001600160a01b038416610dfa5760405163e602df0560e01b81525f6004820152602401610153565b6001600160a01b038316610e2357604051634a1406b160e11b81525f6004820152602401610153565b6001600160a01b038085165f9081526001602090815260408083209387168352929052208290558015610c0157826001600160a01b0316846001600160a01b03167f8c5be1e5ebec7d5bd14f71427d1e84f3dd0314c0f7b2291e5b200ac8c7c3b92584604051610e9591815260200190565b60405180910390a350505050565b6001600160a01b038316610ecd578060025f828254610ec29190611209565b90915550610f3d9050565b6001600160a01b0383165f9081526020819052604090205481811015610f1f5760405163391434e360e21b81526001600160a01b03851660048201526024810182905260448101839052606401610153565b6001600160a01b0384165f9081526020819052604090209082900390555b6001600160a01b038216610f5957600280548290039055610f77565b6001600160a01b0382165f9081526020819052604090208054820190555b816001600160a01b0316836001600160a01b03167fddf252ad1be2c89b69c2b068fc378daa952ba7f163c4a11628f55a4df523b3ef83604051610fbc91815260200190565b60405180910390a3505050565b5f80610fdd670de0b6b3a7640000846111d7565b9050600281610fef81620f42406111c0565b610ff991906111c0565b61100391906111d7565b6110128264e8d4a510006111c0565b61101c9190611209565b9392505050565b5f8051602061121d8339815191525460020361077157604051633ee5aeb560e01b815260040160405180910390fd5b5f6020808352835180828501525f5b8181101561107d57858101830151858201604001528201611061565b505f604082860101526040601f19601f8301168501019250505092915050565b5f602082840312156110ad575f80fd5b5035919050565b80356001600160a01b03811681146110ca575f80fd5b919050565b5f80604083850312156110e0575f80fd5b6110e9836110b4565b946020939093013593505050565b5f805f60608486031215611109575f80fd5b611112846110b4565b9250611120602085016110b4565b9150604084013590509250925092565b5f60208284031215611140575f80fd5b61101c826110b4565b5f806040838503121561115a575f80fd5b611163836110b4565b9150611171602084016110b4565b90509250929050565b600181811c9082168061118e57607f821691505b602082108103610dcb57634e487b7160e01b5f52602260045260245ffd5b634e487b7160e01b5f52601160045260245ffd5b8082028115828204841417610490576104906111ac565b5f826111f157634e487b7160e01b5f52601260045260245ffd5b500490565b81810381811115610490576104906111ac565b80820180821115610490576104906111ac56fe9b779b17422d0df92223018b32b4d1fa46e071723d6817e2486d003becc55f00a2646970667358221220fa8f4d53590ceb51d54f7df80bf46a6c18ebe4cab799f180caf8eca16081af1e64736f6c63430008140033a26469706673582212203c5a8477b0e88b226d7882e17898aced0d19f016a19b324376a74818c768455264736f6c63430008140033","linkReferences":{}},"methodIdentifiers":{"createToken(string,string)":"2f2f2d56","getTokenCount()":"78a89567","getTokens()":"aa6ca808","tokenCreator(address)":"23774af2","tokens(uint256)":"4f64b2be"},"id":26}